F 198803408CPTE01 0120180221110446FTP.DTL                                                                                                             
F0198803408CPTE01 01201701010000111909000000000                                                                                                       
F0198803408CPTE01 01201701110000000630000000000                                                                                                       
F0198803408CPTE01 01201701020000000049500000003                                                                                                       
F0198803408CPTE01 01201701030000000081000000005                                                                                                       
F0198803408CPTE01 01201701040000000079500000039                                                                                                       
F1198803408CPTE01 0120170101S7516784I00000029150000000000000000000000EANGELINE KUEK WEE KHEN                                                          
F1198803408CPTE01 0120170104S7516784I00000000030000000000000000000000 ANGELINE KUEK WEE KHEN                                                          
F1198803408CPTE01 0120170101S7987806E00000030080000000000000000000000LANTONIUS CHRISTIAN                                                              
F1198803408CPTE01 0120170104S7987806E00000000030000000000000000000000 ANTONIUS CHRISTIAN                                                              
F1198803408CPTE01 0120170101S7045401G00000012860000000000000000000000EAZYATI BTE AHAMAD                                                               
F1198803408CPTE01 0120170102S7045401G00000000150000000000000000000000 AZYATI BTE AHAMAD                                                               
F1198803408CPTE01 0120170101S8302585I00000011340000000000000000000000ECAI ZHIWEN                                                                      
F1198803408CPTE01 0120170104S8302585I00000000010000000000000000000000 CAI ZHIWEN                                                                      
F1198803408CPTE01 0120170101S8276460G00000019130000000000000000000000ECHENG KOK TONG                                                                  
F1198803408CPTE01 0120170104S8276460G00000000020000000000000000000000 CHENG KOK TONG                                                                  
F1198803408CPTE01 0120170101S7438955D00000028360000000000000000000000LCHEONG KOK KUEN                                                                 
F1198803408CPTE01 0120170104S7438955D00000000030000000000000000000000 CHEONG KOK KUEN                                                                 
F1198803408CPTE01 0120170101S8129820C00000023510000000000000000000000ECHEONG MENG KEONG                                                               
F1198803408CPTE01 0120170104S8129820C00000000020000000000000000000000 CHEONG MENG KEONG                                                               
F1198803408CPTE01 0120170101S7246631D00000030580000000000000000000000LCHEW KIN KOK HENRY                                                              
F1198803408CPTE01 0120170104S7246631D00000000030000000000000000000000 CHEW KIN KOK HENRY                                                              
F1198803408CPTE01 0120170101S8026607C00000012790000000000000000000000ECHEW SHING YEE                                                                  
F1198803408CPTE01 0120170104S8026607C00000000010000000000000000000000 CHEW SHING YEE                                                                  
F1198803408CPTE01 0120170101S6867661D00000011930000000000000000000000ECHIA TIONG HWE VINCENT                                                          
F1198803408CPTE01 0120170104S6867661D00000000010000000000000000000000 CHIA TIONG HWE VINCENT                                                          
F1198803408CPTE01 0120170101S7908590A00000024000000000000000000000000LCHIN YIAN LENG                                                                  
F1198803408CPTE01 0120170104S7908590A00000000020000000000000000000000 CHIN YIAN LENG                                                                  
F1198803408CPTE01 0120170101S8134824C00000015610000000000000000000000ECHONG LISHI STELLA                                                              
F1198803408CPTE01 0120170101S8901228G00000011300000000000000000000000ECHOONG MEI LING NORLYN                                                          
F1198803408CPTE01 0120170104S8901228G00000000010000000000000000000000 CHOONG MEI LING NORLYN                                                          
F1198803408CPTE01 0120170101S8600928E00000016980000000000000000000000ECHUA WEI XIANG                                                                  
F1198803408CPTE01 0120170104S8600928E00000000015000000000000000000000 CHUA WEI XIANG                                                                  
F1198803408CPTE01 0120170101S8900612J00000017720000000000000000000000EFAREED KHAIRI BIN MD J                                                          
F1198803408CPTE01 0120170102S8900612J00000000195000000000000000000000 FAREED KHAIRI BIN MD J                                                          
F1198803408CPTE01 0120170101S1703030B00000033570000000000000000000000EGOH HWEE CHIT DAVID                                                             
F1198803408CPTE01 0120170104S1703030B00000000030000000000000000000000 GOH HWEE CHIT DAVID                                                             
F1198803408CPTE01 0120170101S1613293D00000024810000000000000000000000EGOH KOW MOEY CHRISTINA                                                          
F1198803408CPTE01 0120170104S1613293D00000000020000000000000000000000 GOH KOW MOEY CHRISTINA                                                          
F1198803408CPTE01 0120170101S8014546B00000025060000000000000000000000LGOH YONG HWEE DERRICK                                                           
F1198803408CPTE01 0120170104S8014546B00000000020000000000000000000000 GOH YONG HWEE DERRICK                                                           
F1198803408CPTE01 0120170101S8860878Z00000004050000000000000000000000LGU YANGJIE                                                                      
F1198803408CPTE01 0120170104S8860878Z00000000015000000000000000000000 GU YANGJIE                                                                      
F1198803408CPTE01 0120170101S8011053G00000021250000000000000000000000EHO KOK KHENG                                                                    
F1198803408CPTE01 0120170104S8011053G00000000020000000000000000000000 HO KOK KHENG                                                                    
F1198803408CPTE01 0120170101S8418453E00000020380000000000000000000000EJEN MIN FENG                                                                    
F1198803408CPTE01 0120170104S8418453E00000000020000000000000000000000 JEN MIN FENG                                                                    
F1198803408CPTE01 0120170101S9174868A00000017660000000000000000000000EKIM SEON                                                                        
F1198803408CPTE01 0120170104S9174868A00000000015000000000000000000000 KIM SEON                                                                        
F1198803408CPTE01 0120170101S8858002H00000010800000000000000000000000EKOO KIM HUAT                                                                    
F1198803408CPTE01 0120170104S8858002H00000000015000000000000000000000 KOO KIM HUAT                                                                    
F1198803408CPTE01 0120170101S6978400C00000015610000000000000000000000EKWEK CHAI JOO                                                                   
F1198803408CPTE01 0120170101S7376146H00000020220000000000000000000000ELE THI BINH MINH                                                                
F1198803408CPTE01 0120170104S7376146H00000000020000000000000000000000 LE THI BINH MINH                                                                
F1198803408CPTE01 0120170101S8410032C00000032140000000000000000000000ELEE KOK SENG NICSON                                                             
F1198803408CPTE01 0120170104S8410032C00000000030000000000000000000000 LEE KOK SENG NICSON                                                             
F1198803408CPTE01 0120170101S7737464G00000026680000000000000000000000ELEE WEI BOON                                                                    
F1198803408CPTE01 0120170104S7737464G00000000020000000000000000000000 LEE WEI BOON                                                                    
F1198803408CPTE01 0120170101S7026910D00000033970000000000000000000000ELEONG YIM FATT                                                                  
F1198803408CPTE01 0120170101S7815887E00000021200000000000000000000000ELIEW HWEE FONG                                                                  
F1198803408CPTE01 0120170104S7815887E00000000020000000000000000000000 LIEW HWEE FONG                                                                  
F1198803408CPTE01 0120170101S7963597I00000028960000000000000000000000EMASUD RANA                                                                      
F1198803408CPTE01 0120170103S7963597I00000000120000000000000000000000 MASUD RANA                                                                      
F1198803408CPTE01 0120170101S8272778G00000017660000000000000000000000LMAY WA THON HTIKE                                                               
F1198803408CPTE01 0120170104S8272778G00000000015000000000000000000000 MAY WA THON HTIKE                                                               
F1198803408CPTE01 0120170101S7443313H00000034440000000000000000000000EMOK MEI YIN VERONICA                                                            
F1198803408CPTE01 0120170104S7443313H00000000030000000000000000000000 MOK MEI YIN VERONICA                                                            
F1198803408CPTE01 0120170101S1798174I00000033300000000000000000000000EN. SANTHI                                                                       
F1198803408CPTE01 0120170101S8783297Z00000006480000000000000000000000ENG WIC LUN                                                                      
F1198803408CPTE01 0120170104S8783297Z00000000010000000000000000000000 NG WIC LUN                                                                      
F1198803408CPTE01 0120170101S1668108C00000046180000000000000000000000EONG CHIN HAN ROBERT                                                             
F1198803408CPTE01 0120170104S1668108C00000000030000000000000000000000 ONG CHIN HAN ROBERT                                                             
F1198803408CPTE01 0120170101S8524754I00000011840000000000000000000000EPEH QING XIANG                                                                  
F1198803408CPTE01 0120170104S8524754I00000000010000000000000000000000 PEH QING XIANG                                                                  
F1198803408CPTE01 0120170101S8473186B00000029070000000000000000000000EPNG MOK LING AILEEN                                                             
F1198803408CPTE01 0120170104S8473186B00000000030000000000000000000000 PNG MOK LING AILEEN                                                             
F1198803408CPTE01 0120170101S8081576Z00000019520000000000000000000000EPONNUCHAMY SENTHIL SHU                                                          
F1198803408CPTE01 0120170103S8081576Z00000000090000000000000000000000 PONNUCHAMY SENTHIL SHU                                                          
F1198803408CPTE01 0120170101S7563628H00000042620000000000000000000000ERAJESH VENUGOPALAN                                                              
F1198803408CPTE01 0120170103S7563628H00000000300000000000000000000000 RAJESH VENUGOPALAN                                                              
F1198803408CPTE01 0120170101S7684710Z00000036420000000000000000000000ERENGARAJ RANGANATHAN                                                            
F1198803408CPTE01 0120170103S7684710Z00000000180000000000000000000000 RENGARAJ RANGANATHAN                                                            
F1198803408CPTE01 0120170101S8180519I00000014610000000000000000000000ESUERTE V LABRADOR                                                               
F1198803408CPTE01 0120170102S8180519I00000000150000000000000000000000 SUERTE V LABRADOR                                                               
F1198803408CPTE01 0120170101S1177245E00000011910000000000000000000000ETAN ENG KIAN LESLIE                                                             
F1198803408CPTE01 0120170104S1177245E00000000020000000000000000000000 TAN ENG KIAN LESLIE                                                             
F1198803408CPTE01 0120170101S7716796Z00000038850000000000000000000000ETAN HWA ANG                                                                     
F1198803408CPTE01 0120170104S7716796Z00000000030000000000000000000000 TAN HWA ANG                                                                     
F1198803408CPTE01 0120170101S8924817E00000010770000000000000000000000ETAN JIN WEN                                                                     
F1198803408CPTE01 0120170104S8924817E00000000010000000000000000000000 TAN JIN WEN                                                                     
F1198803408CPTE01 0120170101S7439027G00000034860000000000000000000000ETAN WEI WEI VERNICE                                                             
F1198803408CPTE01 0120170104S7439027G00000000030000000000000000000000 TAN WEI WEI VERNICE                                                             
F1198803408CPTE01 0120170101S8441960E00000020220000000000000000000000ETEO SOON KIAT IAN                                                               
F1198803408CPTE01 0120170104S8441960E00000000020000000000000000000000 TEO SOON KIAT IAN                                                               
F1198803408CPTE01 0120170101S8325592G00000018120000000000000000000000ETHOR KANGWEI SEBASTIAN                                                          
F1198803408CPTE01 0120170104S8325592G00000000015000000000000000000000 THOR KANGWEI SEBASTIAN                                                          
F1198803408CPTE01 0120170101S7775238B00000020380000000000000000000000LWOON SHU PENG                                                                   
F1198803408CPTE01 0120170104S7775238B00000000020000000000000000000000 WOON SHU PENG                                                                   
F1198803408CPTE01 0120170101S8623922A00000017940000000000000000000000EXU ZHICHENG                                                                     
F1198803408CPTE01 0120170104S8623922A00000000015000000000000000000000 XU ZHICHENG                                                                     
F1198803408CPTE01 0120170101S7388221D00000022200000000000000000000000EZHU YONGHUAN MICHAEL                                                            
F1198803408CPTE01 0120170104S7388221D00000000030000000000000000000000 ZHU YONGHUAN MICHAEL                                                            
F9198803408CPTE01 010000103000000011274900                                                                                                            
