F 200100439RPTE01 0120180907143539FTP.DTL                                                                                                             
F1200100439RPTE01 0120180801S7583580I00000022200000000000000000000000EANDREW ONG                                                                      
F1200100439RPTE01 0120180804S7583580I00000000030000000000000000000000 ANDREW ONG                                                                      
F1200100439RPTE01 0120180801S0275697H00000003710000000000000000000000ECHUA CHENG HOE                                                                  
F1200100439RPTE01 0120180804S0275697H00000000005000000000000000000000 CHUA CHENG HOE                                                                  
F1200100439RPTE01 0120180801S1372574H00000020180000000000000000000000EDanial                                                                          
F1200100439RPTE01 0120180801S9145441F00000007760000000000000000000000EFOO SIANG TER                                                                   
F1200100439RPTE01 0120180804S9145441F00000000015000000000000000000000 FOO SIANG TER                                                                   
F1200100439RPTE01 0120180801S7608469F00000018820000000000000000000000EJULIA BTE DERIS                                                                 
F1200100439RPTE01 0120180802S7608469F00000000195000000000000000000000 JULIA BTE DERIS                                                                 
F1200100439RPTE01 0120180801S1457930C00000000200000000000000000000000EMOHD ALI                                                                        
F1200100439RPTE01 0120180802S1457930C00000000030000000000000000000000 MOHD ALI                                                                        
F1200100439RPTE01 0120180801S1489590F00000011470000000000000000000000EPETER TAN                                                                       
F1200100439RPTE01 0120180804S1489590F00000000010000000000000000000000 PETER TAN                                                                       
F9200100439RPTE01 010000015000000000000000                                                                                                            
