F 3543543GGFPTE01 0120170822162315FTP.DTL                                                                                                             
F03543543GGFPTE01 01201707070000000010000000000                                                                                                       
F03543543GGFPTE01 01201707080000000005000000000                                                                                                       
F03543543GGFPTE01 01201707090000000023000000000                                                                                                       
F03543543GGFPTE01 01201707110000000010000000000                                                                                                       
F03543543GGFPTE01 01201707100000000010000000000                                                                                                       
F03543543GGFPTE01 01201707020000000002000000000                                                                                                       
F93543543GGFPTE01 010000008000000000006000                                                                                                            
