180910                                             71710811473017666   SMEPAYROLL PTE LTD  0000134567            0
733912329877597698SANIYA ANAND        2200000010000                                                              1
733922229877597697JULIA               2200000010000                                                              1
717125414382993   Jutson Ho           2200000010000                                                              1
721409823890870076MOHD ALI            2200000010000                                                              1
73390921235553888 PETER TAN           2200000010000                                                              1
0000000500000050000     0000000000000000000                          00000392910                                 9
