180910                                             71710811473017666   SMEPAYROLL PTE LTD  0000134567            0
733912329877597698SANIYA ANAND        2200000010000                                                              1
0000000100000010000     0000000000000000000                          00000130436                                 9
